{
  "_format": "hh-sol-artifact-1",
  "contractName": "HTLC",
  "sourceName": "contracts/HTLC.sol",
  "abi": [
    {
      "inputs": [
        {
          "internalType": "address",
          "name": "_authorizedCaller",
          "type": "address"
        }
      ],
      "stateMutability": "nonpayable",
      "type": "constructor"
    },
    {
      "anonymous": false,
      "inputs": [
        {
          "indexed": true,
          "internalType": "bytes32",
          "name": "id",
          "type": "bytes32"
        },
        {
          "indexed": true,
          "internalType": "address",
          "name": "recipient",
          "type": "address"
        },
        {
          "indexed": false,
          "internalType": "bytes32",
          "name": "secretHash",
          "type": "bytes32"
        },
        {
          "indexed": false,
          "internalType": "uint256",
          "name": "amount",
          "type": "uint256"
        },
        {
          "indexed": false,
          "internalType": "uint256",
          "name": "timelock",
          "type": "uint256"
        }
      ],
      "name": "Locked",
      "type": "event"
    },
    {
      "anonymous": false,
      "inputs": [
        {
          "indexed": true,
          "internalType": "address",
          "name": "from",
          "type": "address"
        },
        {
          "indexed": false,
          "internalType": "uint256",
          "name": "amount",
          "type": "uint256"
        }
      ],
      "name": "Received",
      "type": "event"
    },
    {
      "anonymous": false,
      "inputs": [
        {
          "indexed": true,
          "internalType": "bytes32",
          "name": "id",
          "type": "bytes32"
        },
        {
          "indexed": false,
          "internalType": "uint256",
          "name": "amount",
          "type": "uint256"
        }
      ],
      "name": "Refunded",
      "type": "event"
    },
    {
      "anonymous": false,
      "inputs": [
        {
          "indexed": true,
          "internalType": "bytes32",
          "name": "lockId",
          "type": "bytes32"
        },
        {
          "indexed": false,
          "internalType": "string",
          "name": "secret",
          "type": "string"
        }
      ],
      "name": "SecretRevealed",
      "type": "event"
    },
    {
      "anonymous": false,
      "inputs": [
        {
          "indexed": true,
          "internalType": "bytes32",
          "name": "id",
          "type": "bytes32"
        },
        {
          "indexed": true,
          "internalType": "address",
          "name": "recipient",
          "type": "address"
        },
        {
          "indexed": false,
          "internalType": "bytes",
          "name": "secret",
          "type": "bytes"
        }
      ],
      "name": "Withdrawn",
      "type": "event"
    },
    {
      "inputs": [
        {
          "internalType": "uint256",
          "name": "",
          "type": "uint256"
        }
      ],
      "name": "allLockIds",
      "outputs": [
        {
          "internalType": "bytes32",
          "name": "",
          "type": "bytes32"
        }
      ],
      "stateMutability": "view",
      "type": "function"
    },
    {
      "inputs": [],
      "name": "authorizedCaller",
      "outputs": [
        {
          "internalType": "address",
          "name": "",
          "type": "address"
        }
      ],
      "stateMutability": "view",
      "type": "function"
    },
    {
      "inputs": [],
      "name": "getAllHTLCs",
      "outputs": [
        {
          "components": [
            {
              "internalType": "address",
              "name": "recipient",
              "type": "address"
            },
            {
              "internalType": "bytes32",
              "name": "secretHash",
              "type": "bytes32"
            },
            {
              "internalType": "uint256",
              "name": "amount",
              "type": "uint256"
            },
            {
              "internalType": "uint256",
              "name": "timelock",
              "type": "uint256"
            }
          ],
          "internalType": "struct HTLC.LockData[]",
          "name": "",
          "type": "tuple[]"
        }
      ],
      "stateMutability": "view",
      "type": "function"
    },
    {
      "inputs": [
        {
          "internalType": "bytes32",
          "name": "",
          "type": "bytes32"
        }
      ],
      "name": "isLocked",
      "outputs": [
        {
          "internalType": "bool",
          "name": "",
          "type": "bool"
        }
      ],
      "stateMutability": "view",
      "type": "function"
    },
    {
      "inputs": [
        {
          "internalType": "bytes32",
          "name": "",
          "type": "bytes32"
        }
      ],
      "name": "lockData",
      "outputs": [
        {
          "internalType": "address",
          "name": "recipient",
          "type": "address"
        },
        {
          "internalType": "bytes32",
          "name": "secretHash",
          "type": "bytes32"
        },
        {
          "internalType": "uint256",
          "name": "amount",
          "type": "uint256"
        },
        {
          "internalType": "uint256",
          "name": "timelock",
          "type": "uint256"
        }
      ],
      "stateMutability": "view",
      "type": "function"
    },
    {
      "inputs": [
        {
          "internalType": "address",
          "name": "recipient",
          "type": "address"
        },
        {
          "internalType": "bytes32",
          "name": "secretHash",
          "type": "bytes32"
        },
        {
          "internalType": "uint256",
          "name": "timelock",
          "type": "uint256"
        }
      ],
      "name": "newLock",
      "outputs": [],
      "stateMutability": "payable",
      "type": "function"
    },
    {
      "inputs": [
        {
          "internalType": "bytes32",
          "name": "id",
          "type": "bytes32"
        }
      ],
      "name": "refund",
      "outputs": [],
      "stateMutability": "nonpayable",
      "type": "function"
    },
    {
      "inputs": [
        {
          "internalType": "bytes32",
          "name": "lockId",
          "type": "bytes32"
        },
        {
          "internalType": "string",
          "name": "secret",
          "type": "string"
        }
      ],
      "name": "revealSecret",
      "outputs": [],
      "stateMutability": "nonpayable",
      "type": "function"
    },
    {
      "inputs": [
        {
          "internalType": "bytes32",
          "name": "id",
          "type": "bytes32"
        },
        {
          "internalType": "bytes",
          "name": "secret",
          "type": "bytes"
        }
      ],
      "name": "withdraw",
      "outputs": [],
      "stateMutability": "nonpayable",
      "type": "function"
    },
    {
      "stateMutability": "payable",
      "type": "receive"
    }
  ],
  "bytecode": "0x6080346100bf57601f610d3e38819003918201601f19168301916001600160401b038311848410176100c4578084926020946040528339810103126100bf57516001600160a01b038116908190036100bf57801561007a57600080546001600160a01b031916919091179055604051610c6390816100db8239f35b60405162461bcd60e51b815260206004820152601960248201527f496e76616c696420617574686f72697a65642063616c6c6572000000000000006044820152606490fd5b600080fd5b634e487b7160e01b600052604160045260246000fdfe6080604081815260048036101561004b575b509050361561001f57600080fd5b513481527f88a5966d370b9919b20f3e2c13ff65706f196a4e32cc2c12bf57088f8852587460203392a2005b600092833560e01c90816332a16f4e1461093857508063412a02de146107cc5780634a2e35ba1461066a5780637249fbb6146104de57806384bad29a1461020357806397dc97cb146101dd578063e12b4e2714610147578063e86383cf146100f55763f82b98700361001157346100f15760203660031901126100f15735916003548310156100ee57506100e06020926109b5565b90549060031b1c9051908152f35b80fd5b8280fd5b50346100f15760203660031901126100f1576080928291358152600260205220906001600160a01b03825416916001810154916003600283015492015492815194855260208501528301526060820152f35b5050346101d9577fc63030ac3752ef8fddbc7ca6980f676d4b81a73317a051c0412e0f7d8452f4596101d39161017c36610963565b91949092858752600160205261019760ff8289205416610ac7565b6101c16101a5368587610b2e565b6020815191012087895260026020526001838a20015414610b65565b51928392602084526020840191610be0565b0390a280f35b5080fd5b5050346101d957816003193601126101d9576001600160a01b0360209254169051908152f35b5060603660031901126100f1578035906001600160a01b0391828116938482036104da576024918235936044359361023f878a54163314610a02565b3415610498578715610456574285111561041457835196602093848901906bffffffffffffffffffffffff199060601b1681528760348a01523460548a01528660748a01526074895260a089019089821067ffffffffffffffff831117610402578187528951902098898c526001865260ff878d2054166103c1575050878a5260018452848a20600160ff198254161790556003888b8751936102e185610a73565b8c8552878501908b8252898087019334855260608801958d8752815260028b52209551167fffffffffffffffffffffffff00000000000000000000000000000000000000008654161785555160018501555160028401555191015560035491680100000000000000008310156103b0575050916060939161038a8460017f35188f65d33eb64c07f456c874f597c9d3101dca4b6e8a500bef20a8397b74e39896016003556109b5565b81549060031b9089821b91600019901b191617905581519384523490840152820152a380f35b60418a91634e487b7160e01b835252fd5b907f4c6f636b20616c7265616479206578697374730000000000000000000000000060e46064938862461bcd60e51b855260a4820152601360c48201520152fd5b838c604187634e487b7160e01b835252fd5b90601e606492602086519362461bcd60e51b85528401528201527f54696d656c6f636b206d75737420626520696e207468652066757475726500006044820152fd5b906011606492602086519362461bcd60e51b85528401528201527f496e76616c696420726563697069656e740000000000000000000000000000006044820152fd5b90600b606492602086519362461bcd60e51b85528401528201527f4e6f204554482073656e740000000000000000000000000000000000000000006044820152fd5b8580fd5b5090346100f15760209081600319360112610666578235926001600160a01b039061050d828754163314610a02565b8486526001845261052360ff8488205416610ac7565b84865260028452828620916060845161053b81610a73565b82855416815260018501548782015260036002860154958783019687520154918291015242106106245786808080938982526001895287822060ff1981541690556002895261059e88832060036000918281558260018201558260028201550155565b8154168651905af16105ae610bb0565b50156105e257505190519081527f1535ab411323bb41ad642ccf14068bbd78818ed38dd9b4421c927cc6eeb07e2d9190a280f35b6064908484519162461bcd60e51b8352820152601160248201527f45544820726566756e64206661696c65640000000000000000000000000000006044820152fd5b6064828686519162461bcd60e51b8352820152601360248201527f546f6f206561726c7920746f20726566756e64000000000000000000000000006044820152fd5b8380fd5b50346100f15761067936610963565b9192908386526020916001835261069560ff8789205416610ac7565b84875260028352858720908651906106ac82610a73565b888080808b6106fd6001600160a01b039889815416895260036001820154918d8b019283526002810154948b01948552015460608a01526106ef8d36908d610b2e565b8c8151910120905114610b65565b8b825260018a528c822060ff19815416905560028a526107318d832060036000918281558260018201558260028201550155565b878751169051905af1610742610bb0565b501561078a575091610784917f5f307bbb699ee97cc043b2947cf0d5de6133b171aff683fc41909ad595fe467b95949351169651938385948552840191610be0565b0390a380f35b6064908589519162461bcd60e51b8352820152601360248201527f455448207472616e73666572206661696c6564000000000000000000000000006044820152fd5b508290346101d957816003193601126101d9576003908154906107ee82610c01565b926107fb86519485610aa5565b828452601f1961080a84610c01565b01855b81811061090b575050845b83811061088457505050508251916020808401908085528351809252808686019401925b8281106108495785850386f35b835180516001600160a01b0316865280830151868401528781015188870152606090810151908601526080909401939281019260010161083c565b61088d816109b5565b905490831b1c86526002602081815288882089519285926108ad85610a73565b6001600160a01b0383541685526001830154908501528101548a840152015460608201526108db8287610c19565b526108e68186610c19565b5060001981146108f857600101610818565b602486601185634e487b7160e01b835252fd5b602090885161091981610a73565b888152828981830152898b83015289606083015282890101520161080d565b9291905034610666576020366003190112610666573583526001602090815292205460ff1615158152f35b60406003198201126109b0576004359160243567ffffffffffffffff928382116109b057806023830112156109b05781600401359384116109b057602484830101116109b0576024019190565b600080fd5b6003548110156109ec5760036000527fc2575a0e9e593c00f959f8c92f12db2869c3395a3b0502d05e2516446f71f85b0190600090565b634e487b7160e01b600052603260045260246000fd5b15610a0957565b608460405162461bcd60e51b815260206004820152602260248201527f4f6e6c7920617574686f72697a65642063616c6c65722063616e20657865637560448201527f74650000000000000000000000000000000000000000000000000000000000006064820152fd5b6080810190811067ffffffffffffffff821117610a8f57604052565b634e487b7160e01b600052604160045260246000fd5b90601f8019910116810190811067ffffffffffffffff821117610a8f57604052565b15610ace57565b606460405162461bcd60e51b815260206004820152601360248201527f4c6f636b20646f6573206e6f74206578697374000000000000000000000000006044820152fd5b67ffffffffffffffff8111610a8f57601f01601f191660200190565b929192610b3a82610b12565b91610b486040519384610aa5565b8294818452818301116109b0578281602093846000960137010152565b15610b6c57565b606460405162461bcd60e51b815260206004820152600e60248201527f496e76616c6964207365637265740000000000000000000000000000000000006044820152fd5b3d15610bdb573d90610bc182610b12565b91610bcf6040519384610aa5565b82523d6000602084013e565b606090565b908060209392818452848401376000828201840152601f01601f1916010190565b67ffffffffffffffff8111610a8f5760051b60200190565b80518210156109ec5760209160051b01019056fea2646970667358221220c22a141d0cafeeadaff88e04f8dae65f0bdecc95d92ea7cf9cf159a0771caf3264736f6c63430008140033",
  "linkReferences": {},
  "deployedLinkReferences": {}
}