{
  "_format": "hh-sol-artifact-1",
  "contractName": "IntentMatching",
  "sourceName": "contracts/IntentMatching.sol",
  "abi": [
    {
      "inputs": [],
      "stateMutability": "nonpayable",
      "type": "constructor"
    },
    {
      "inputs": [
        {
          "internalType": "address",
          "name": "owner",
          "type": "address"
        }
      ],
      "name": "OwnableInvalidOwner",
      "type": "error"
    },
    {
      "inputs": [
        {
          "internalType": "address",
          "name": "account",
          "type": "address"
        }
      ],
      "name": "OwnableUnauthorizedAccount",
      "type": "error"
    },
    {
      "inputs": [],
      "name": "ReentrancyGuardReentrantCall",
      "type": "error"
    },
    {
      "anonymous": false,
      "inputs": [
        {
          "indexed": true,
          "internalType": "uint256",
          "name": "intentId",
          "type": "uint256"
        },
        {
          "indexed": true,
          "internalType": "address",
          "name": "buyer",
          "type": "address"
        },
        {
          "indexed": false,
          "internalType": "uint256",
          "name": "sellAmount",
          "type": "uint256"
        },
        {
          "indexed": false,
          "internalType": "uint256",
          "name": "minBuyAmount",
          "type": "uint256"
        },
        {
          "indexed": false,
          "internalType": "uint256",
          "name": "locktime",
          "type": "uint256"
        },
        {
          "indexed": false,
          "internalType": "bytes32",
          "name": "offchainId",
          "type": "bytes32"
        }
      ],
      "name": "BuyIntentCreated",
      "type": "event"
    },
    {
      "anonymous": false,
      "inputs": [
        {
          "indexed": false,
          "internalType": "address",
          "name": "oldAddress",
          "type": "address"
        },
        {
          "indexed": false,
          "internalType": "address",
          "name": "newAddress",
          "type": "address"
        }
      ],
      "name": "HTLCAddressUpdated",
      "type": "event"
    },
    {
      "anonymous": false,
      "inputs": [
        {
          "indexed": true,
          "internalType": "uint256",
          "name": "buyIntentId",
          "type": "uint256"
        },
        {
          "indexed": true,
          "internalType": "bytes32",
          "name": "lockId",
          "type": "bytes32"
        },
        {
          "indexed": false,
          "internalType": "address",
          "name": "recipient",
          "type": "address"
        },
        {
          "indexed": false,
          "internalType": "bytes32",
          "name": "secretHash",
          "type": "bytes32"
        }
      ],
      "name": "HTLCAssociated",
      "type": "event"
    },
    {
      "anonymous": false,
      "inputs": [
        {
          "indexed": true,
          "internalType": "uint256",
          "name": "buyIntentId",
          "type": "uint256"
        },
        {
          "indexed": true,
          "internalType": "uint256",
          "name": "sellIntentId",
          "type": "uint256"
        },
        {
          "indexed": false,
          "internalType": "bytes32",
          "name": "lockId",
          "type": "bytes32"
        },
        {
          "indexed": false,
          "internalType": "bytes32",
          "name": "secretHash",
          "type": "bytes32"
        },
        {
          "indexed": false,
          "internalType": "uint256",
          "name": "timelock",
          "type": "uint256"
        },
        {
          "indexed": false,
          "internalType": "string",
          "name": "btcReceiverAddress",
          "type": "string"
        }
      ],
      "name": "HTLCPrepared",
      "type": "event"
    },
    {
      "anonymous": false,
      "inputs": [
        {
          "indexed": false,
          "internalType": "address",
          "name": "oldAddress",
          "type": "address"
        },
        {
          "indexed": false,
          "internalType": "address",
          "name": "newAddress",
          "type": "address"
        }
      ],
      "name": "MarketMakerUpdated",
      "type": "event"
    },
    {
      "anonymous": false,
      "inputs": [
        {
          "indexed": false,
          "internalType": "address",
          "name": "oldWallet",
          "type": "address"
        },
        {
          "indexed": false,
          "internalType": "address",
          "name": "newWallet",
          "type": "address"
        }
      ],
      "name": "MultisigWalletUpdated",
      "type": "event"
    },
    {
      "anonymous": false,
      "inputs": [
        {
          "indexed": true,
          "internalType": "uint256",
          "name": "buyIntentId",
          "type": "uint256"
        }
      ],
      "name": "NoMatchingSellIntent",
      "type": "event"
    },
    {
      "anonymous": false,
      "inputs": [
        {
          "indexed": true,
          "internalType": "address",
          "name": "previousOwner",
          "type": "address"
        },
        {
          "indexed": true,
          "internalType": "address",
          "name": "newOwner",
          "type": "address"
        }
      ],
      "name": "OwnershipTransferred",
      "type": "event"
    },
    {
      "anonymous": false,
      "inputs": [
        {
          "indexed": true,
          "internalType": "uint256",
          "name": "intentId",
          "type": "uint256"
        },
        {
          "indexed": true,
          "internalType": "address",
          "name": "seller",
          "type": "address"
        },
        {
          "indexed": false,
          "internalType": "uint256",
          "name": "sellAmount",
          "type": "uint256"
        },
        {
          "indexed": false,
          "internalType": "uint256",
          "name": "minBuyAmount",
          "type": "uint256"
        },
        {
          "indexed": false,
          "internalType": "uint256",
          "name": "deadline",
          "type": "uint256"
        },
        {
          "indexed": false,
          "internalType": "bytes32",
          "name": "offchainId",
          "type": "bytes32"
        }
      ],
      "name": "SellIntentCreated",
      "type": "event"
    },
    {
      "anonymous": false,
      "inputs": [
        {
          "indexed": true,
          "internalType": "uint256",
          "name": "buyIntentId",
          "type": "uint256"
        },
        {
          "indexed": true,
          "internalType": "uint256",
          "name": "sellIntentId",
          "type": "uint256"
        },
        {
          "indexed": true,
          "internalType": "address",
          "name": "executor",
          "type": "address"
        },
        {
          "indexed": false,
          "internalType": "address",
          "name": "seller",
          "type": "address"
        },
        {
          "indexed": false,
          "internalType": "address",
          "name": "buyer",
          "type": "address"
        },
        {
          "indexed": false,
          "internalType": "uint256",
          "name": "ethAmount",
          "type": "uint256"
        },
        {
          "indexed": false,
          "internalType": "uint256",
          "name": "btcAmount",
          "type": "uint256"
        },
        {
          "indexed": false,
          "internalType": "uint256",
          "name": "locktime",
          "type": "uint256"
        }
      ],
      "name": "TradeMatched",
      "type": "event"
    },
    {
      "inputs": [
        {
          "internalType": "uint256",
          "name": "buyIntentId",
          "type": "uint256"
        },
        {
          "internalType": "bytes32",
          "name": "lockId",
          "type": "bytes32"
        },
        {
          "internalType": "address",
          "name": "recipient",
          "type": "address"
        },
        {
          "internalType": "bytes32",
          "name": "secretHash",
          "type": "bytes32"
        }
      ],
      "name": "associateHTLC",
      "outputs": [],
      "stateMutability": "nonpayable",
      "type": "function"
    },
    {
      "inputs": [
        {
          "internalType": "uint256",
          "name": "",
          "type": "uint256"
        }
      ],
      "name": "buyIntents",
      "outputs": [
        {
          "internalType": "address",
          "name": "buyer",
          "type": "address"
        },
        {
          "internalType": "uint256",
          "name": "sellAmount",
          "type": "uint256"
        },
        {
          "internalType": "uint256",
          "name": "minBuyAmount",
          "type": "uint256"
        },
        {
          "internalType": "uint256",
          "name": "locktime",
          "type": "uint256"
        },
        {
          "internalType": "uint256",
          "name": "createdAt",
          "type": "uint256"
        },
        {
          "internalType": "enum IntentMatching.IntentStatus",
          "name": "status",
          "type": "uint8"
        },
        {
          "internalType": "bytes32",
          "name": "offchainId",
          "type": "bytes32"
        },
        {
          "internalType": "uint256",
          "name": "slippage",
          "type": "uint256"
        }
      ],
      "stateMutability": "view",
      "type": "function"
    },
    {
      "inputs": [
        {
          "internalType": "uint256",
          "name": "sellAmount",
          "type": "uint256"
        },
        {
          "internalType": "uint256",
          "name": "minBuyAmount",
          "type": "uint256"
        },
        {
          "internalType": "uint256",
          "name": "locktime",
          "type": "uint256"
        },
        {
          "internalType": "bytes32",
          "name": "offchainId",
          "type": "bytes32"
        },
        {
          "internalType": "uint256",
          "name": "slippage",
          "type": "uint256"
        }
      ],
      "name": "createBuyIntent",
      "outputs": [
        {
          "internalType": "uint256",
          "name": "",
          "type": "uint256"
        }
      ],
      "stateMutability": "nonpayable",
      "type": "function"
    },
    {
      "inputs": [
        {
          "internalType": "uint256",
          "name": "sellAmount",
          "type": "uint256"
        },
        {
          "internalType": "uint256",
          "name": "minBuyAmount",
          "type": "uint256"
        },
        {
          "internalType": "uint256",
          "name": "deadline",
          "type": "uint256"
        },
        {
          "internalType": "bytes32",
          "name": "offchainId",
          "type": "bytes32"
        }
      ],
      "name": "createSellIntent",
      "outputs": [
        {
          "internalType": "uint256",
          "name": "",
          "type": "uint256"
        }
      ],
      "stateMutability": "nonpayable",
      "type": "function"
    },
    {
      "inputs": [
        {
          "internalType": "uint256",
          "name": "id",
          "type": "uint256"
        }
      ],
      "name": "getBuyIntent",
      "outputs": [
        {
          "components": [
            {
              "internalType": "address",
              "name": "buyer",
              "type": "address"
            },
            {
              "internalType": "uint256",
              "name": "sellAmount",
              "type": "uint256"
            },
            {
              "internalType": "uint256",
              "name": "minBuyAmount",
              "type": "uint256"
            },
            {
              "internalType": "uint256",
              "name": "locktime",
              "type": "uint256"
            },
            {
              "internalType": "uint256",
              "name": "createdAt",
              "type": "uint256"
            },
            {
              "internalType": "enum IntentMatching.IntentStatus",
              "name": "status",
              "type": "uint8"
            },
            {
              "internalType": "bytes32",
              "name": "offchainId",
              "type": "bytes32"
            },
            {
              "internalType": "uint256",
              "name": "slippage",
              "type": "uint256"
            }
          ],
          "internalType": "struct IntentMatching.BuyIntent",
          "name": "",
          "type": "tuple"
        }
      ],
      "stateMutability": "view",
      "type": "function"
    },
    {
      "inputs": [
        {
          "internalType": "uint256",
          "name": "id",
          "type": "uint256"
        }
      ],
      "name": "getMatchedTrade",
      "outputs": [
        {
          "components": [
            {
              "internalType": "uint256",
              "name": "buyIntentId",
              "type": "uint256"
            },
            {
              "internalType": "uint256",
              "name": "sellIntentId",
              "type": "uint256"
            },
            {
              "internalType": "address",
              "name": "executor",
              "type": "address"
            },
            {
              "internalType": "address",
              "name": "recipient",
              "type": "address"
            },
            {
              "internalType": "uint256",
              "name": "ethAmount",
              "type": "uint256"
            },
            {
              "internalType": "uint256",
              "name": "btcAmount",
              "type": "uint256"
            },
            {
              "internalType": "uint256",
              "name": "locktime",
              "type": "uint256"
            },
            {
              "internalType": "uint256",
              "name": "timestamp",
              "type": "uint256"
            }
          ],
          "internalType": "struct IntentMatching.MatchedTrade",
          "name": "",
          "type": "tuple"
        }
      ],
      "stateMutability": "view",
      "type": "function"
    },
    {
      "inputs": [
        {
          "internalType": "uint256",
          "name": "id",
          "type": "uint256"
        }
      ],
      "name": "getSellIntent",
      "outputs": [
        {
          "components": [
            {
              "internalType": "address",
              "name": "seller",
              "type": "address"
            },
            {
              "internalType": "uint256",
              "name": "sellAmount",
              "type": "uint256"
            },
            {
              "internalType": "uint256",
              "name": "minBuyAmount",
              "type": "uint256"
            },
            {
              "internalType": "uint256",
              "name": "deadline",
              "type": "uint256"
            },
            {
              "internalType": "enum IntentMatching.IntentStatus",
              "name": "status",
              "type": "uint8"
            },
            {
              "internalType": "bytes32",
              "name": "offchainId",
              "type": "bytes32"
            }
          ],
          "internalType": "struct IntentMatching.SellIntent",
          "name": "",
          "type": "tuple"
        }
      ],
      "stateMutability": "view",
      "type": "function"
    },
    {
      "inputs": [],
      "name": "htlcAddress",
      "outputs": [
        {
          "internalType": "address",
          "name": "",
          "type": "address"
        }
      ],
      "stateMutability": "view",
      "type": "function"
    },
    {
      "inputs": [],
      "name": "intentCountBuy",
      "outputs": [
        {
          "internalType": "uint256",
          "name": "",
          "type": "uint256"
        }
      ],
      "stateMutability": "view",
      "type": "function"
    },
    {
      "inputs": [],
      "name": "intentCountSell",
      "outputs": [
        {
          "internalType": "uint256",
          "name": "",
          "type": "uint256"
        }
      ],
      "stateMutability": "view",
      "type": "function"
    },
    {
      "inputs": [],
      "name": "marketMaker",
      "outputs": [
        {
          "internalType": "address",
          "name": "",
          "type": "address"
        }
      ],
      "stateMutability": "view",
      "type": "function"
    },
    {
      "inputs": [
        {
          "internalType": "uint256",
          "name": "buyIntentId",
          "type": "uint256"
        }
      ],
      "name": "matchIntent",
      "outputs": [],
      "stateMutability": "nonpayable",
      "type": "function"
    },
    {
      "inputs": [],
      "name": "matchedTradeCount",
      "outputs": [
        {
          "internalType": "uint256",
          "name": "",
          "type": "uint256"
        }
      ],
      "stateMutability": "view",
      "type": "function"
    },
    {
      "inputs": [
        {
          "internalType": "uint256",
          "name": "",
          "type": "uint256"
        }
      ],
      "name": "matchedTrades",
      "outputs": [
        {
          "internalType": "uint256",
          "name": "buyIntentId",
          "type": "uint256"
        },
        {
          "internalType": "uint256",
          "name": "sellIntentId",
          "type": "uint256"
        },
        {
          "internalType": "address",
          "name": "executor",
          "type": "address"
        },
        {
          "internalType": "address",
          "name": "recipient",
          "type": "address"
        },
        {
          "internalType": "uint256",
          "name": "ethAmount",
          "type": "uint256"
        },
        {
          "internalType": "uint256",
          "name": "btcAmount",
          "type": "uint256"
        },
        {
          "internalType": "uint256",
          "name": "locktime",
          "type": "uint256"
        },
        {
          "internalType": "uint256",
          "name": "timestamp",
          "type": "uint256"
        }
      ],
      "stateMutability": "view",
      "type": "function"
    },
    {
      "inputs": [],
      "name": "multisigWallet",
      "outputs": [
        {
          "internalType": "address",
          "name": "",
          "type": "address"
        }
      ],
      "stateMutability": "view",
      "type": "function"
    },
    {
      "inputs": [],
      "name": "owner",
      "outputs": [
        {
          "internalType": "address",
          "name": "",
          "type": "address"
        }
      ],
      "stateMutability": "view",
      "type": "function"
    },
    {
      "inputs": [],
      "name": "renounceOwnership",
      "outputs": [],
      "stateMutability": "nonpayable",
      "type": "function"
    },
    {
      "inputs": [
        {
          "internalType": "uint256",
          "name": "",
          "type": "uint256"
        }
      ],
      "name": "sellIntents",
      "outputs": [
        {
          "internalType": "address",
          "name": "seller",
          "type": "address"
        },
        {
          "internalType": "uint256",
          "name": "sellAmount",
          "type": "uint256"
        },
        {
          "internalType": "uint256",
          "name": "minBuyAmount",
          "type": "uint256"
        },
        {
          "internalType": "uint256",
          "name": "deadline",
          "type": "uint256"
        },
        {
          "internalType": "enum IntentMatching.IntentStatus",
          "name": "status",
          "type": "uint8"
        },
        {
          "internalType": "bytes32",
          "name": "offchainId",
          "type": "bytes32"
        }
      ],
      "stateMutability": "view",
      "type": "function"
    },
    {
      "inputs": [
        {
          "internalType": "address",
          "name": "_htlc",
          "type": "address"
        }
      ],
      "name": "setHTLCAddress",
      "outputs": [],
      "stateMutability": "nonpayable",
      "type": "function"
    },
    {
      "inputs": [
        {
          "internalType": "address",
          "name": "_mm",
          "type": "address"
        }
      ],
      "name": "setMarketMaker",
      "outputs": [],
      "stateMutability": "nonpayable",
      "type": "function"
    },
    {
      "inputs": [
        {
          "internalType": "address",
          "name": "_wallet",
          "type": "address"
        }
      ],
      "name": "setMultisigWallet",
      "outputs": [],
      "stateMutability": "nonpayable",
      "type": "function"
    },
    {
      "inputs": [
        {
          "internalType": "address",
          "name": "newOwner",
          "type": "address"
        }
      ],
      "name": "transferOwnership",
      "outputs": [],
      "stateMutability": "nonpayable",
      "type": "function"
    }
  ],
  "bytecode": "0x6080806040523461007e5733156100685760008054336001600160a01b03198216811783556040519290916001600160a01b0316907f8be0079c531659141344cd1fd0a4f28419497f9722a3daafe3b4186f6b6457e09080a3600180556116a890816100848239f35b631e4fbdf760e01b815260006004820152602490fd5b600080fdfe608080604052600436101561001357600080fd5b60003560e01c9081630b2ccd90146113e8575080631b57ed2d146113ca5780631f21f9af146113a3578063333a4f991461137c5780633d1a0ad6146112a9578063489afa701461123257806352961c3114611150578063629aad1914610af457806362e2962114610a44578063630ce80614610a26578063649134771461090f578063715018a6146108b65780637b5e4bf8146107e957806385cbc2f0146107645780638da5cb5b1461073d5780639075becf1461071657806399057f071461063a578063b4e09d2014610471578063d69715b8146102a0578063f05015de14610282578063f2fde38b146101e35763f54c42d71461011157600080fd5b346101de5760203660031901126101de5761012a61147e565b610132611494565b6001600160a01b039081811691821561019a57600854604080516001600160a01b03938316841681529390921660208401526001600160a01b03199290917f2d0c45baa8153bbdeac5b34d72aecfae445fbcd2a3fdbdf17c752947b45e7a9e91a11617600855005b606460405162461bcd60e51b815260206004820152601360248201527f496e76616c6964206d61726b65744d616b6572000000000000000000000000006044820152fd5b600080fd5b346101de5760203660031901126101de576101fc61147e565b610204611494565b6001600160a01b0380911690811561025157600054826001600160a01b0319821617600055167f8be0079c531659141344cd1fd0a4f28419497f9722a3daafe3b4186f6b6457e0600080a3005b60246040517f1e4fbdf700000000000000000000000000000000000000000000000000000000815260006004820152fd5b346101de5760003660031901126101de576020600354604051908152f35b346101de5760803660031901126101de576004356024359060443590606435926001600160a01b038060085416330361042d576102de8315156114d8565b428411156103e957600354936102f385611523565b6003556102fe611573565b923384526020840185815260408501828152606086019084825260808701926000845260a08801968b88528a600052600760205260406000209851166001600160a01b0319895416178855516001880155516002870155516003860155519260048410156103d3576020978560056103c89361039f7f52970b50cbebe2adfc617f6836ede8e2d7ebd22092bd40029e066460057ba7de9860048d9b0161159f565b519101556040519384933398859094939260609260808301968352602083015260408201520152565b0390a3604051908152f35b634e487b7160e01b600052602160045260246000fd5b606460405162461bcd60e51b815260206004820152601e60248201527f446561646c696e65206d75737420626520696e207468652066757475726500006044820152fd5b606460405162461bcd60e51b815260206004820152601160248201527f4f6e6c79206d61726b6574206d616b65720000000000000000000000000000006044820152fd5b346101de5760a03660031901126101de5760443560243560043560643560843561049c8315156114d8565b428511156105f657606481116105b2576001600160a01b0394600254946104c286611523565b6002556104cd611532565b338152602081018681526040820183815260608301858152608084019142835260a08501936000855260c08601958a875260e08101998a528c60005260066020526001600160a01b031960406000209e8f925116915416178d555160018d01555160028c01555160038b01555160048a0155519460048610156103d3578860077f4e6af8f0f851d94b6953edbe888c750eeee9701daba1a76be43e83bac8f7b248966103c8946105838c9a600560209f0161159f565b516006840155519101556040519384933398859094939260609260808301968352602083015260408201520152565b606460405162461bcd60e51b815260206004820152601060248201527f496e76616c696420736c697070616765000000000000000000000000000000006044820152fd5b606460405162461bcd60e51b815260206004820152601e60248201527f4c6f636b74696d65206d75737420626520696e207468652066757475726500006044820152fd5b346101de5760203660031901126101de57600060a0610657611573565b8281528260208201528260408201528260608201528260808201520152600435600052600760205260c0604060002061068e611573565b9061070e6001600160a01b039182815416845260018101546020850190815260028201546040860190815260038301549160608701928352600560ff600486015416946106df60808a019687611593565b01549560a088019687526040519751168752516020870152516040860152516060850152516080840190611471565b5160a0820152f35b346101de5760003660031901126101de5760206001600160a01b0360095416604051908152f35b346101de5760003660031901126101de5760206001600160a01b0360005416604051908152f35b346101de5760203660031901126101de57600435600052600560205261010060406000208054906001810154906001600160a01b0380600283015416906003830154166004830154906005840154926007600686015495015495604051978852602088015260408701526060860152608085015260a084015260c083015260e0820152f35b346101de5760203660031901126101de5761080261147e565b61080a611494565b6001600160a01b039081811691821561087257600a54604080516001600160a01b03938316841681529390921660208401526001600160a01b03199290917f2f88dace561aba7849dcc0b168956f57f96efc9a024d0c8b58ee1577f2199a9891a11617600a55005b606460405162461bcd60e51b815260206004820152601460248201527f496e76616c69642048544c4320616464726573730000000000000000000000006044820152fd5b346101de5760003660031901126101de576108cf611494565b60006001600160a01b0381546001600160a01b031981168355167f8be0079c531659141344cd1fd0a4f28419497f9722a3daafe3b4186f6b6457e08280a3005b346101de5760203660031901126101de5761092861147e565b610930611494565b600954906001600160a01b039182811692836109e257821692831561099e57604080516001600160a01b0392831681529390911660208401526001600160a01b0319927f86e5a79b116b1b58296614b8323eb315c7f0d67c5786fe97e11afc17fcb5b6199190a11617600955005b606460405162461bcd60e51b815260206004820152600f60248201527f496e76616c6964206164647265737300000000000000000000000000000000006044820152fd5b606460405162461bcd60e51b815260206004820152601460248201527f4d756c746973696720616c7265616479207365740000000000000000000000006044820152fd5b346101de5760003660031901126101de576020600254604051908152f35b346101de5760803660031901126101de576044356001600160a01b038082168092036101de57600954163303610ab0576040519081526064356020820152602435907fe7821df1f57f8ab4a6bd52df7a8925458df329ea80a5a383e8b1b996dd0b72e9604060043592a3005b606460405162461bcd60e51b815260206004820152601d60248201527f4f6e6c79206d756c74697369672077616c6c65742063616e2063616c6c0000006044820152fd5b346101de5760203660031901126101de5760026001541461112657600260015560043560005260066020526040600020600581019060ff82541660048110156103d3576110e2576003810154421161109e576001810154906002810154670de0b6b3a7640000810290808204670de0b6b3a76400001490151715610dfd5782610b7c916115ca565b600782015460640360648111610dfd57610b98606491836115b7565b049260035491610ba7836115f7565b604051939067ffffffffffffffff601f8201601f191686019081119086111761108857601f01601f199081168501604052818552610be4826115f7565b0160005b81811061106757505060009560005b828110610f8e57505050508315610f4a5760005b848110610eb05750600094855b85871080610ea7575b15610e4257610c30878561160f565b51516000526007602052610de2604060002093600185015490808211600014610e3957610c6c81925b610c678460028a01546115b7565b6115ca565b95610c778b8961160f565b51516001600160a01b038a54169060038b015491610c93611532565b9160043583526020830152336040830152606082015288608082015260a091858383015260c08201524260e0820152600454610cce81611523565b6004556000526005602052600760e06040600020928051845560208101516001850155600284016001600160a01b03604083015116906001600160a01b0319918282541617905560038501906001600160a01b03606084015116908254161790556080810151600485015584810151600585015560c081015160068501550151910155610d5b8c8a61160f565b51516001600160a01b038354166001600160a01b038c541660038d01549060405192835260208301528a604083015286606083015260808201527f2407442456796e326aecb9b0b3ffa1bb0a59e68c00849ab5fbde5555df9e40cf339360043592a4826001820154808214600014610e13575050600401805460ff191660021790556115ea565b928082018211610dfd57610df7910196611523565b95610c18565b634e487b7160e01b600052601160045260246000fd5b90610e1d916115ea565b60018201556002610e3188828401546115ea565b9101556115ea565b610c6c82610c59565b8285918115600014610e6357505050600260ff198254161790555b60018055005b60018394929301548310610e7b575b50505050610e5d565b600292610e9b92600160ff198254161790556001850155828401546115ea565b91015580808080610e72565b50821515610c21565b60018101808211610dfd575b858110610ed25750610ecd90611523565b610c0b565b806020610ee2610efe938761160f565b5101516020610ef1858861160f565b51015110610f0357611523565b610ebc565b610f0d838661160f565b51610f18828761160f565b51610f23858861160f565b52610f2e848761160f565b50610f39828761160f565b52610f44818661160f565b50611523565b606460405162461bcd60e51b815260206004820152601e60248201527f4e6f206d61746368696e672073656c6c20696e74656e747320666f756e6400006044820152fd5b806000526007602052604060002060ff60048201541660048110156103d3571580159061105a575b61100557600281015480670de0b6b3a7640000810204670de0b6b3a76400001481151715610dfd57670de0b6b3a76400006001610ff693015491026115ca565b8281101580611050575b611014575b5061100f90611523565b610bf7565b979061104961100f92611025611553565b9a838c5260208c015261103781611523565b9a611042828b61160f565b528861160f565b5090611005565b5084811115611000565b5060038101544211610fb6565b602090611072611553565b6000815260008382015282828901015201610be8565b634e487b7160e01b600052604160045260246000fd5b606460405162461bcd60e51b815260206004820152601160248201527f427579496e74656e7420657870697265640000000000000000000000000000006044820152fd5b606460405162461bcd60e51b815260206004820152601560248201527f427579496e74656e74206e6f742070656e64696e6700000000000000000000006044820152fd5b60046040517f3ee5aeb5000000000000000000000000000000000000000000000000000000008152fd5b346101de5760203660031901126101de57611169611639565b5060043560005260066020526101006040600020611185611532565b906001600160a01b03908181541683526112246001820154602085019081526002830154604086019081526003840154606087019081526004850154916080880192835260ff600587015416936111e060a08a019586611593565b600760068801549760c08b0198895201549760e08a0198895260405199511689525160208901525160408801525160608701525160808601525160a0850190611471565b5160c08301525160e0820152f35b346101de5760203660031901126101de57600435600052600760205260c060406000206001600160a01b03815416906112a26001820154916002810154600382015490600560ff600485015416930154946040519687526020870152604086015260608501526080840190611471565b60a0820152f35b346101de5760203660031901126101de576112c2611639565b50600435600052600560205261010060406000206112de611532565b8154918282526001810154602083019081526001600160a01b038060028401541690604085019182528060038501541660608601908152816004860154936080880194855260058701549560a0890196875260e0600760068a01549960c08c019a8b5201549901988952604051998a525160208a015251166040880152511660608601525160808501525160a08401525160c08301525160e0820152f35b346101de5760003660031901126101de5760206001600160a01b03600a5416604051908152f35b346101de5760003660031901126101de5760206001600160a01b0360085416604051908152f35b346101de5760003660031901126101de576020600454604051908152f35b346101de5760203660031901126101de5761010090600435600052600660205260406000206001600160a01b038154169061146560018201546002830154600384015460048501549160ff6005870154169360076006880154970154978952602089015260408801526060870152608086015260a0850190611471565b60c083015260e0820152f35b9060048210156103d35752565b600435906001600160a01b03821682036101de57565b6001600160a01b036000541633036114a857565b60246040517f118cdaa7000000000000000000000000000000000000000000000000000000008152336004820152fd5b156114df57565b606460405162461bcd60e51b815260206004820152601c60248201527f53656c6c20616d6f756e74206d75737420626520706f736974697665000000006044820152fd5b6000198114610dfd5760010190565b60405190610100820182811067ffffffffffffffff82111761108857604052565b604051906040820182811067ffffffffffffffff82111761108857604052565b6040519060c0820182811067ffffffffffffffff82111761108857604052565b60048210156103d35752565b9060048110156103d35760ff80198354169116179055565b81810292918115918404141715610dfd57565b81156115d4570490565b634e487b7160e01b600052601260045260246000fd5b91908203918211610dfd57565b67ffffffffffffffff81116110885760051b60200190565b80518210156116235760209160051b010190565b634e487b7160e01b600052603260045260246000fd5b611641611532565b9060008083528060208401528060408401528060608401528060808401528060a08401528060c084015260e083015256fea264697066735822122041f3b257eef42689cf3d211e770785826551e051915426bf944a3484c3a1ba4c64736f6c63430008140033",
  "linkReferences": {},
  "deployedLinkReferences": {}
}