{
  "_format": "hh-sol-artifact-1",
  "contractName": "IntentMatching",
  "sourceName": "contracts/IntentMatching.sol",
  "abi": [
    {
      "inputs": [],
      "stateMutability": "nonpayable",
      "type": "constructor"
    },
    {
      "inputs": [
        {
          "internalType": "address",
          "name": "owner",
          "type": "address"
        }
      ],
      "name": "OwnableInvalidOwner",
      "type": "error"
    },
    {
      "inputs": [
        {
          "internalType": "address",
          "name": "account",
          "type": "address"
        }
      ],
      "name": "OwnableUnauthorizedAccount",
      "type": "error"
    },
    {
      "inputs": [],
      "name": "ReentrancyGuardReentrantCall",
      "type": "error"
    },
    {
      "anonymous": false,
      "inputs": [
        {
          "indexed": true,
          "internalType": "uint256",
          "name": "intentId",
          "type": "uint256"
        },
        {
          "indexed": true,
          "internalType": "address",
          "name": "buyer",
          "type": "address"
        },
        {
          "indexed": false,
          "internalType": "uint256",
          "name": "sellAmount",
          "type": "uint256"
        },
        {
          "indexed": false,
          "internalType": "uint256",
          "name": "minBuyAmount",
          "type": "uint256"
        },
        {
          "indexed": false,
          "internalType": "uint256",
          "name": "locktime",
          "type": "uint256"
        },
        {
          "indexed": false,
          "internalType": "bytes32",
          "name": "offchainId",
          "type": "bytes32"
        }
      ],
      "name": "BuyIntentCreated",
      "type": "event"
    },
    {
      "anonymous": false,
      "inputs": [
        {
          "indexed": false,
          "internalType": "address",
          "name": "oldAddress",
          "type": "address"
        },
        {
          "indexed": false,
          "internalType": "address",
          "name": "newAddress",
          "type": "address"
        }
      ],
      "name": "HTLCAddressUpdated",
      "type": "event"
    },
    {
      "anonymous": false,
      "inputs": [
        {
          "indexed": true,
          "internalType": "uint256",
          "name": "buyIntentId",
          "type": "uint256"
        },
        {
          "indexed": true,
          "internalType": "bytes32",
          "name": "lockId",
          "type": "bytes32"
        },
        {
          "indexed": false,
          "internalType": "address",
          "name": "recipient",
          "type": "address"
        },
        {
          "indexed": false,
          "internalType": "bytes32",
          "name": "secretHash",
          "type": "bytes32"
        }
      ],
      "name": "HTLCAssociated",
      "type": "event"
    },
    {
      "anonymous": false,
      "inputs": [
        {
          "indexed": true,
          "internalType": "uint256",
          "name": "buyIntentId",
          "type": "uint256"
        },
        {
          "indexed": true,
          "internalType": "uint256",
          "name": "sellIntentId",
          "type": "uint256"
        },
        {
          "indexed": false,
          "internalType": "bytes32",
          "name": "lockId",
          "type": "bytes32"
        },
        {
          "indexed": false,
          "internalType": "bytes32",
          "name": "secretHash",
          "type": "bytes32"
        },
        {
          "indexed": false,
          "internalType": "uint256",
          "name": "timelock",
          "type": "uint256"
        },
        {
          "indexed": false,
          "internalType": "string",
          "name": "btcReceiverAddress",
          "type": "string"
        }
      ],
      "name": "HTLCPrepared",
      "type": "event"
    },
    {
      "anonymous": false,
      "inputs": [
        {
          "indexed": false,
          "internalType": "address",
          "name": "oldWallet",
          "type": "address"
        },
        {
          "indexed": false,
          "internalType": "address",
          "name": "newWallet",
          "type": "address"
        }
      ],
      "name": "MultisigWalletUpdated",
      "type": "event"
    },
    {
      "anonymous": false,
      "inputs": [
        {
          "indexed": true,
          "internalType": "uint256",
          "name": "buyIntentId",
          "type": "uint256"
        }
      ],
      "name": "NoMatchingSellIntent",
      "type": "event"
    },
    {
      "anonymous": false,
      "inputs": [
        {
          "indexed": true,
          "internalType": "address",
          "name": "previousOwner",
          "type": "address"
        },
        {
          "indexed": true,
          "internalType": "address",
          "name": "newOwner",
          "type": "address"
        }
      ],
      "name": "OwnershipTransferred",
      "type": "event"
    },
    {
      "anonymous": false,
      "inputs": [
        {
          "indexed": true,
          "internalType": "uint256",
          "name": "intentId",
          "type": "uint256"
        },
        {
          "indexed": true,
          "internalType": "address",
          "name": "seller",
          "type": "address"
        },
        {
          "indexed": false,
          "internalType": "uint256",
          "name": "sellAmount",
          "type": "uint256"
        },
        {
          "indexed": false,
          "internalType": "uint256",
          "name": "minBuyAmount",
          "type": "uint256"
        },
        {
          "indexed": false,
          "internalType": "uint256",
          "name": "deadline",
          "type": "uint256"
        },
        {
          "indexed": false,
          "internalType": "bytes32",
          "name": "offchainId",
          "type": "bytes32"
        }
      ],
      "name": "SellIntentCreated",
      "type": "event"
    },
    {
      "anonymous": false,
      "inputs": [
        {
          "indexed": true,
          "internalType": "uint256",
          "name": "buyIntentId",
          "type": "uint256"
        },
        {
          "indexed": true,
          "internalType": "uint256",
          "name": "sellIntentId",
          "type": "uint256"
        },
        {
          "indexed": true,
          "internalType": "address",
          "name": "executor",
          "type": "address"
        },
        {
          "indexed": false,
          "internalType": "address",
          "name": "seller",
          "type": "address"
        },
        {
          "indexed": false,
          "internalType": "address",
          "name": "buyer",
          "type": "address"
        },
        {
          "indexed": false,
          "internalType": "uint256",
          "name": "ethAmount",
          "type": "uint256"
        },
        {
          "indexed": false,
          "internalType": "uint256",
          "name": "btcAmount",
          "type": "uint256"
        },
        {
          "indexed": false,
          "internalType": "uint256",
          "name": "locktime",
          "type": "uint256"
        }
      ],
      "name": "TradeMatched",
      "type": "event"
    },
    {
      "inputs": [
        {
          "internalType": "uint256",
          "name": "buyIntentId",
          "type": "uint256"
        },
        {
          "internalType": "bytes32",
          "name": "lockId",
          "type": "bytes32"
        },
        {
          "internalType": "address",
          "name": "recipient",
          "type": "address"
        },
        {
          "internalType": "bytes32",
          "name": "secretHash",
          "type": "bytes32"
        }
      ],
      "name": "associateHTLC",
      "outputs": [],
      "stateMutability": "nonpayable",
      "type": "function"
    },
    {
      "inputs": [
        {
          "internalType": "uint256",
          "name": "",
          "type": "uint256"
        }
      ],
      "name": "buyIntents",
      "outputs": [
        {
          "internalType": "address",
          "name": "buyer",
          "type": "address"
        },
        {
          "internalType": "uint256",
          "name": "sellAmount",
          "type": "uint256"
        },
        {
          "internalType": "uint256",
          "name": "minBuyAmount",
          "type": "uint256"
        },
        {
          "internalType": "uint256",
          "name": "locktime",
          "type": "uint256"
        },
        {
          "internalType": "uint256",
          "name": "createdAt",
          "type": "uint256"
        },
        {
          "internalType": "enum IntentMatching.IntentStatus",
          "name": "status",
          "type": "uint8"
        },
        {
          "internalType": "bytes32",
          "name": "offchainId",
          "type": "bytes32"
        },
        {
          "internalType": "uint256",
          "name": "slippage",
          "type": "uint256"
        }
      ],
      "stateMutability": "view",
      "type": "function"
    },
    {
      "inputs": [
        {
          "internalType": "uint256",
          "name": "sellAmount",
          "type": "uint256"
        },
        {
          "internalType": "uint256",
          "name": "minBuyAmount",
          "type": "uint256"
        },
        {
          "internalType": "uint256",
          "name": "locktime",
          "type": "uint256"
        },
        {
          "internalType": "bytes32",
          "name": "offchainId",
          "type": "bytes32"
        },
        {
          "internalType": "uint256",
          "name": "slippage",
          "type": "uint256"
        }
      ],
      "name": "createBuyIntent",
      "outputs": [
        {
          "internalType": "uint256",
          "name": "",
          "type": "uint256"
        }
      ],
      "stateMutability": "nonpayable",
      "type": "function"
    },
    {
      "inputs": [
        {
          "internalType": "uint256",
          "name": "sellAmount",
          "type": "uint256"
        },
        {
          "internalType": "uint256",
          "name": "minBuyAmount",
          "type": "uint256"
        },
        {
          "internalType": "uint256",
          "name": "deadline",
          "type": "uint256"
        },
        {
          "internalType": "bytes32",
          "name": "offchainId",
          "type": "bytes32"
        }
      ],
      "name": "createSellIntent",
      "outputs": [
        {
          "internalType": "uint256",
          "name": "",
          "type": "uint256"
        }
      ],
      "stateMutability": "nonpayable",
      "type": "function"
    },
    {
      "inputs": [
        {
          "internalType": "uint256",
          "name": "id",
          "type": "uint256"
        }
      ],
      "name": "getBuyIntent",
      "outputs": [
        {
          "components": [
            {
              "internalType": "address",
              "name": "buyer",
              "type": "address"
            },
            {
              "internalType": "uint256",
              "name": "sellAmount",
              "type": "uint256"
            },
            {
              "internalType": "uint256",
              "name": "minBuyAmount",
              "type": "uint256"
            },
            {
              "internalType": "uint256",
              "name": "locktime",
              "type": "uint256"
            },
            {
              "internalType": "uint256",
              "name": "createdAt",
              "type": "uint256"
            },
            {
              "internalType": "enum IntentMatching.IntentStatus",
              "name": "status",
              "type": "uint8"
            },
            {
              "internalType": "bytes32",
              "name": "offchainId",
              "type": "bytes32"
            },
            {
              "internalType": "uint256",
              "name": "slippage",
              "type": "uint256"
            }
          ],
          "internalType": "struct IntentMatching.BuyIntent",
          "name": "",
          "type": "tuple"
        }
      ],
      "stateMutability": "view",
      "type": "function"
    },
    {
      "inputs": [
        {
          "internalType": "uint256",
          "name": "id",
          "type": "uint256"
        }
      ],
      "name": "getMatchedTrade",
      "outputs": [
        {
          "components": [
            {
              "internalType": "uint256",
              "name": "buyIntentId",
              "type": "uint256"
            },
            {
              "internalType": "uint256",
              "name": "sellIntentId",
              "type": "uint256"
            },
            {
              "internalType": "address",
              "name": "executor",
              "type": "address"
            },
            {
              "internalType": "address",
              "name": "recipient",
              "type": "address"
            },
            {
              "internalType": "uint256",
              "name": "ethAmount",
              "type": "uint256"
            },
            {
              "internalType": "uint256",
              "name": "btcAmount",
              "type": "uint256"
            },
            {
              "internalType": "uint256",
              "name": "locktime",
              "type": "uint256"
            },
            {
              "internalType": "uint256",
              "name": "timestamp",
              "type": "uint256"
            }
          ],
          "internalType": "struct IntentMatching.MatchedTrade",
          "name": "",
          "type": "tuple"
        }
      ],
      "stateMutability": "view",
      "type": "function"
    },
    {
      "inputs": [
        {
          "internalType": "uint256",
          "name": "id",
          "type": "uint256"
        }
      ],
      "name": "getSellIntent",
      "outputs": [
        {
          "components": [
            {
              "internalType": "address",
              "name": "seller",
              "type": "address"
            },
            {
              "internalType": "uint256",
              "name": "sellAmount",
              "type": "uint256"
            },
            {
              "internalType": "uint256",
              "name": "minBuyAmount",
              "type": "uint256"
            },
            {
              "internalType": "uint256",
              "name": "deadline",
              "type": "uint256"
            },
            {
              "internalType": "enum IntentMatching.IntentStatus",
              "name": "status",
              "type": "uint8"
            },
            {
              "internalType": "bytes32",
              "name": "offchainId",
              "type": "bytes32"
            }
          ],
          "internalType": "struct IntentMatching.SellIntent",
          "name": "",
          "type": "tuple"
        }
      ],
      "stateMutability": "view",
      "type": "function"
    },
    {
      "inputs": [],
      "name": "htlcAddress",
      "outputs": [
        {
          "internalType": "address",
          "name": "",
          "type": "address"
        }
      ],
      "stateMutability": "view",
      "type": "function"
    },
    {
      "inputs": [],
      "name": "intentCountBuy",
      "outputs": [
        {
          "internalType": "uint256",
          "name": "",
          "type": "uint256"
        }
      ],
      "stateMutability": "view",
      "type": "function"
    },
    {
      "inputs": [],
      "name": "intentCountSell",
      "outputs": [
        {
          "internalType": "uint256",
          "name": "",
          "type": "uint256"
        }
      ],
      "stateMutability": "view",
      "type": "function"
    },
    {
      "inputs": [
        {
          "internalType": "uint256",
          "name": "buyIntentId",
          "type": "uint256"
        }
      ],
      "name": "matchIntent",
      "outputs": [],
      "stateMutability": "nonpayable",
      "type": "function"
    },
    {
      "inputs": [],
      "name": "matchedTradeCount",
      "outputs": [
        {
          "internalType": "uint256",
          "name": "",
          "type": "uint256"
        }
      ],
      "stateMutability": "view",
      "type": "function"
    },
    {
      "inputs": [
        {
          "internalType": "uint256",
          "name": "",
          "type": "uint256"
        }
      ],
      "name": "matchedTrades",
      "outputs": [
        {
          "internalType": "uint256",
          "name": "buyIntentId",
          "type": "uint256"
        },
        {
          "internalType": "uint256",
          "name": "sellIntentId",
          "type": "uint256"
        },
        {
          "internalType": "address",
          "name": "executor",
          "type": "address"
        },
        {
          "internalType": "address",
          "name": "recipient",
          "type": "address"
        },
        {
          "internalType": "uint256",
          "name": "ethAmount",
          "type": "uint256"
        },
        {
          "internalType": "uint256",
          "name": "btcAmount",
          "type": "uint256"
        },
        {
          "internalType": "uint256",
          "name": "locktime",
          "type": "uint256"
        },
        {
          "internalType": "uint256",
          "name": "timestamp",
          "type": "uint256"
        }
      ],
      "stateMutability": "view",
      "type": "function"
    },
    {
      "inputs": [],
      "name": "multisigWallet",
      "outputs": [
        {
          "internalType": "address",
          "name": "",
          "type": "address"
        }
      ],
      "stateMutability": "view",
      "type": "function"
    },
    {
      "inputs": [],
      "name": "owner",
      "outputs": [
        {
          "internalType": "address",
          "name": "",
          "type": "address"
        }
      ],
      "stateMutability": "view",
      "type": "function"
    },
    {
      "inputs": [],
      "name": "renounceOwnership",
      "outputs": [],
      "stateMutability": "nonpayable",
      "type": "function"
    },
    {
      "inputs": [
        {
          "internalType": "uint256",
          "name": "",
          "type": "uint256"
        }
      ],
      "name": "sellIntents",
      "outputs": [
        {
          "internalType": "address",
          "name": "seller",
          "type": "address"
        },
        {
          "internalType": "uint256",
          "name": "sellAmount",
          "type": "uint256"
        },
        {
          "internalType": "uint256",
          "name": "minBuyAmount",
          "type": "uint256"
        },
        {
          "internalType": "uint256",
          "name": "deadline",
          "type": "uint256"
        },
        {
          "internalType": "enum IntentMatching.IntentStatus",
          "name": "status",
          "type": "uint8"
        },
        {
          "internalType": "bytes32",
          "name": "offchainId",
          "type": "bytes32"
        }
      ],
      "stateMutability": "view",
      "type": "function"
    },
    {
      "inputs": [
        {
          "internalType": "address",
          "name": "_htlc",
          "type": "address"
        }
      ],
      "name": "setHTLCAddress",
      "outputs": [],
      "stateMutability": "nonpayable",
      "type": "function"
    },
    {
      "inputs": [
        {
          "internalType": "address",
          "name": "_wallet",
          "type": "address"
        }
      ],
      "name": "setMultisigWallet",
      "outputs": [],
      "stateMutability": "nonpayable",
      "type": "function"
    },
    {
      "inputs": [
        {
          "internalType": "address",
          "name": "newOwner",
          "type": "address"
        }
      ],
      "name": "transferOwnership",
      "outputs": [],
      "stateMutability": "nonpayable",
      "type": "function"
    }
  ],
  "bytecode": "0x6080806040523461007e5733156100685760008054336001600160a01b03198216811783556040519290916001600160a01b0316907f8be0079c531659141344cd1fd0a4f28419497f9722a3daafe3b4186f6b6457e09080a36001805561156a90816100848239f35b631e4fbdf760e01b815260006004820152602490fd5b600080fdfe608080604052600436101561001357600080fd5b60003560e01c9081630b2ccd901461125f575080631b57ed2d14611241578063333a4f991461121a5780633d1a0ad614611147578063489afa70146110d057806352961c3114610fee578063629aad191461099257806362e2962114610921578063630ce8061461090357806364913477146107ec578063715018a6146107935780637b5e4bf8146106c657806385cbc2f0146106415780638da5cb5b1461061a5780639075becf146105f357806399057f0714610517578063b4e09d201461034e578063d69715b8146101bd578063f05015de1461019f5763f2fde38b146100fb57600080fd5b3461019a57602036600319011261019a576101146112f5565b61011c61130b565b6001600160a01b0380911690811561016957600054826001600160a01b0319821617600055167f8be0079c531659141344cd1fd0a4f28419497f9722a3daafe3b4186f6b6457e0600080a3005b60246040517f1e4fbdf700000000000000000000000000000000000000000000000000000000815260006004820152fd5b600080fd5b3461019a57600036600319011261019a576020600354604051908152f35b3461019a57608036600319011261019a576004356024359060443590606435926001600160a01b036101f48160085416331461142e565b6101ff83151561134f565b4284111561030a57600354936102148561139a565b60035561021f6113ea565b923384526020840185815260408501828152606086019084825260808701926000845260a08801968b88528a600052600760205260406000209851166001600160a01b0319895416178855516001880155516002870155516003860155519260048410156102f4576020978560056102e9936102c07f52970b50cbebe2adfc617f6836ede8e2d7ebd22092bd40029e066460057ba7de9860048d9b01611416565b519101556040519384933398859094939260609260808301968352602083015260408201520152565b0390a3604051908152f35b634e487b7160e01b600052602160045260246000fd5b606460405162461bcd60e51b815260206004820152601e60248201527f446561646c696e65206d75737420626520696e207468652066757475726500006044820152fd5b3461019a5760a036600319011261019a5760443560243560043560643560843561037983151561134f565b428511156104d3576064811161048f576001600160a01b03946002549461039f8661139a565b6002556103aa6113a9565b338152602081018681526040820183815260608301858152608084019142835260a08501936000855260c08601958a875260e08101998a528c60005260066020526001600160a01b031960406000209e8f925116915416178d555160018d01555160028c01555160038b01555160048a0155519460048610156102f4578860077f4e6af8f0f851d94b6953edbe888c750eeee9701daba1a76be43e83bac8f7b248966102e9946104608c9a600560209f01611416565b516006840155519101556040519384933398859094939260609260808301968352602083015260408201520152565b606460405162461bcd60e51b815260206004820152601060248201527f496e76616c696420736c697070616765000000000000000000000000000000006044820152fd5b606460405162461bcd60e51b815260206004820152601e60248201527f4c6f636b74696d65206d75737420626520696e207468652066757475726500006044820152fd5b3461019a57602036600319011261019a57600060a06105346113ea565b8281528260208201528260408201528260608201528260808201520152600435600052600760205260c0604060002061056b6113ea565b906105eb6001600160a01b039182815416845260018101546020850190815260028201546040860190815260038301549160608701928352600560ff600486015416946105bc60808a01968761140a565b01549560a0880196875260405197511687525160208701525160408601525160608501525160808401906112e8565b5160a0820152f35b3461019a57600036600319011261019a5760206001600160a01b0360085416604051908152f35b3461019a57600036600319011261019a5760206001600160a01b0360005416604051908152f35b3461019a57602036600319011261019a57600435600052600560205261010060406000208054906001810154906001600160a01b0380600283015416906003830154166004830154906005840154926007600686015495015495604051978852602088015260408701526060860152608085015260a084015260c083015260e0820152f35b3461019a57602036600319011261019a576106df6112f5565b6106e761130b565b6001600160a01b039081811691821561074f57600954604080516001600160a01b03938316841681529390921660208401526001600160a01b03199290917f2f88dace561aba7849dcc0b168956f57f96efc9a024d0c8b58ee1577f2199a9891a11617600955005b606460405162461bcd60e51b815260206004820152601460248201527f496e76616c69642048544c4320616464726573730000000000000000000000006044820152fd5b3461019a57600036600319011261019a576107ac61130b565b60006001600160a01b0381546001600160a01b031981168355167f8be0079c531659141344cd1fd0a4f28419497f9722a3daafe3b4186f6b6457e08280a3005b3461019a57602036600319011261019a576108056112f5565b61080d61130b565b600854906001600160a01b039182811692836108bf57821692831561087b57604080516001600160a01b0392831681529390911660208401526001600160a01b0319927f86e5a79b116b1b58296614b8323eb315c7f0d67c5786fe97e11afc17fcb5b6199190a11617600855005b606460405162461bcd60e51b815260206004820152600f60248201527f496e76616c6964206164647265737300000000000000000000000000000000006044820152fd5b606460405162461bcd60e51b815260206004820152601460248201527f4d756c746973696720616c7265616479207365740000000000000000000000006044820152fd5b3461019a57600036600319011261019a576020600254604051908152f35b3461019a57608036600319011261019a576044356001600160a01b0380821680920361019a576109569060085416331461142e565b6040519081526064356020820152602435907fe7821df1f57f8ab4a6bd52df7a8925458df329ea80a5a383e8b1b996dd0b72e9604060043592a3005b3461019a57602036600319011261019a57600260015414610fc457600260015560043560005260066020526040600020600581019060ff82541660048110156102f457610f805760038101544211610f3c576001810154906002810154670de0b6b3a7640000810290808204670de0b6b3a76400001490151715610c9b5782610a1a9161148c565b600782015460640360648111610c9b57610a3660649183611479565b049260035491610a45836114b9565b604051939067ffffffffffffffff601f8201601f1916860190811190861117610f2657601f01601f199081168501604052818552610a82826114b9565b0160005b818110610f0557505060009560005b828110610e2c57505050508315610de85760005b848110610d4e5750600094855b85871080610d45575b15610ce057610ace87856114d1565b51516000526007602052610c80604060002093600185015490808211600014610cd757610b0a81925b610b058460028a0154611479565b61148c565b95610b158b896114d1565b51516001600160a01b038a54169060038b015491610b316113a9565b9160043583526020830152336040830152606082015288608082015260a091858383015260c08201524260e0820152600454610b6c8161139a565b6004556000526005602052600760e06040600020928051845560208101516001850155600284016001600160a01b03604083015116906001600160a01b0319918282541617905560038501906001600160a01b03606084015116908254161790556080810151600485015584810151600585015560c081015160068501550151910155610bf98c8a6114d1565b51516001600160a01b038354166001600160a01b038c541660038d01549060405192835260208301528a604083015286606083015260808201527f2407442456796e326aecb9b0b3ffa1bb0a59e68c00849ab5fbde5555df9e40cf339360043592a4826001820154808214600014610cb1575050600401805460ff191660021790556114ac565b928082018211610c9b57610c9591019661139a565b95610ab6565b634e487b7160e01b600052601160045260246000fd5b90610cbb916114ac565b60018201556002610ccf88828401546114ac565b9101556114ac565b610b0a82610af7565b8285918115600014610d0157505050600260ff198254161790555b60018055005b60018394929301548310610d19575b50505050610cfb565b600292610d3992600160ff198254161790556001850155828401546114ac565b91015580808080610d10565b50821515610abf565b60018101808211610c9b575b858110610d705750610d6b9061139a565b610aa9565b806020610d80610d9c93876114d1565b5101516020610d8f85886114d1565b51015110610da15761139a565b610d5a565b610dab83866114d1565b51610db682876114d1565b51610dc185886114d1565b52610dcc84876114d1565b50610dd782876114d1565b52610de281866114d1565b5061139a565b606460405162461bcd60e51b815260206004820152601e60248201527f4e6f206d61746368696e672073656c6c20696e74656e747320666f756e6400006044820152fd5b806000526007602052604060002060ff60048201541660048110156102f45715801590610ef8575b610ea357600281015480670de0b6b3a7640000810204670de0b6b3a76400001481151715610c9b57670de0b6b3a76400006001610e94930154910261148c565b8281101580610eee575b610eb2575b50610ead9061139a565b610a95565b9790610ee7610ead92610ec36113ca565b9a838c5260208c0152610ed58161139a565b9a610ee0828b6114d1565b52886114d1565b5090610ea3565b5084811115610e9e565b5060038101544211610e54565b602090610f106113ca565b6000815260008382015282828901015201610a86565b634e487b7160e01b600052604160045260246000fd5b606460405162461bcd60e51b815260206004820152601160248201527f427579496e74656e7420657870697265640000000000000000000000000000006044820152fd5b606460405162461bcd60e51b815260206004820152601560248201527f427579496e74656e74206e6f742070656e64696e6700000000000000000000006044820152fd5b60046040517f3ee5aeb5000000000000000000000000000000000000000000000000000000008152fd5b3461019a57602036600319011261019a576110076114fb565b50600435600052600660205261010060406000206110236113a9565b906001600160a01b03908181541683526110c26001820154602085019081526002830154604086019081526003840154606087019081526004850154916080880192835260ff6005870154169361107e60a08a01958661140a565b600760068801549760c08b0198895201549760e08a0198895260405199511689525160208901525160408801525160608701525160808601525160a08501906112e8565b5160c08301525160e0820152f35b3461019a57602036600319011261019a57600435600052600760205260c060406000206001600160a01b03815416906111406001820154916002810154600382015490600560ff6004850154169301549460405196875260208701526040860152606085015260808401906112e8565b60a0820152f35b3461019a57602036600319011261019a576111606114fb565b506004356000526005602052610100604060002061117c6113a9565b8154918282526001810154602083019081526001600160a01b038060028401541690604085019182528060038501541660608601908152816004860154936080880194855260058701549560a0890196875260e0600760068a01549960c08c019a8b5201549901988952604051998a525160208a015251166040880152511660608601525160808501525160a08401525160c08301525160e0820152f35b3461019a57600036600319011261019a5760206001600160a01b0360095416604051908152f35b3461019a57600036600319011261019a576020600454604051908152f35b3461019a57602036600319011261019a5761010090600435600052600660205260406000206001600160a01b03815416906112dc60018201546002830154600384015460048501549160ff6005870154169360076006880154970154978952602089015260408801526060870152608086015260a08501906112e8565b60c083015260e0820152f35b9060048210156102f45752565b600435906001600160a01b038216820361019a57565b6001600160a01b0360005416330361131f57565b60246040517f118cdaa7000000000000000000000000000000000000000000000000000000008152336004820152fd5b1561135657565b606460405162461bcd60e51b815260206004820152601c60248201527f53656c6c20616d6f756e74206d75737420626520706f736974697665000000006044820152fd5b6000198114610c9b5760010190565b60405190610100820182811067ffffffffffffffff821117610f2657604052565b604051906040820182811067ffffffffffffffff821117610f2657604052565b6040519060c0820182811067ffffffffffffffff821117610f2657604052565b60048210156102f45752565b9060048110156102f45760ff80198354169116179055565b1561143557565b606460405162461bcd60e51b815260206004820152601d60248201527f4f6e6c79206d756c74697369672077616c6c65742063616e2063616c6c0000006044820152fd5b81810292918115918404141715610c9b57565b8115611496570490565b634e487b7160e01b600052601260045260246000fd5b91908203918211610c9b57565b67ffffffffffffffff8111610f265760051b60200190565b80518210156114e55760209160051b010190565b634e487b7160e01b600052603260045260246000fd5b6115036113a9565b9060008083528060208401528060408401528060608401528060808401528060a08401528060c084015260e083015256fea26469706673582212203b3ce062dd59a3b64b6db3f1db1d427c4ad0c2d305399f40a78b30653a0b18a164736f6c63430008140033",
  "linkReferences": {},
  "deployedLinkReferences": {}
}