{
  "_format": "hh-sol-artifact-1",
  "contractName": "MultisigWallet",
  "sourceName": "contracts/MultisigWallet.sol",
  "abi": [
    {
      "inputs": [
        {
          "internalType": "address[]",
          "name": "_owners",
          "type": "address[]"
        },
        {
          "internalType": "uint256",
          "name": "_required",
          "type": "uint256"
        }
      ],
      "stateMutability": "nonpayable",
      "type": "constructor"
    },
    {
      "anonymous": false,
      "inputs": [
        {
          "indexed": true,
          "internalType": "address",
          "name": "owner",
          "type": "address"
        },
        {
          "indexed": true,
          "internalType": "uint256",
          "name": "txID",
          "type": "uint256"
        }
      ],
      "name": "TransactionConfirmed",
      "type": "event"
    },
    {
      "anonymous": false,
      "inputs": [
        {
          "indexed": true,
          "internalType": "uint256",
          "name": "txID",
          "type": "uint256"
        }
      ],
      "name": "TransactionExecuted",
      "type": "event"
    },
    {
      "anonymous": false,
      "inputs": [
        {
          "indexed": true,
          "internalType": "uint256",
          "name": "txID",
          "type": "uint256"
        },
        {
          "indexed": true,
          "internalType": "address",
          "name": "target",
          "type": "address"
        },
        {
          "indexed": false,
          "internalType": "uint256",
          "name": "value",
          "type": "uint256"
        },
        {
          "indexed": false,
          "internalType": "bytes",
          "name": "payload",
          "type": "bytes"
        }
      ],
      "name": "TransactionSubmitted",
      "type": "event"
    },
    {
      "inputs": [
        {
          "internalType": "uint256",
          "name": "_txID",
          "type": "uint256"
        }
      ],
      "name": "confirmTransaction",
      "outputs": [],
      "stateMutability": "nonpayable",
      "type": "function"
    },
    {
      "inputs": [
        {
          "internalType": "uint256",
          "name": "",
          "type": "uint256"
        },
        {
          "internalType": "address",
          "name": "",
          "type": "address"
        }
      ],
      "name": "confirmations",
      "outputs": [
        {
          "internalType": "bool",
          "name": "",
          "type": "bool"
        }
      ],
      "stateMutability": "view",
      "type": "function"
    },
    {
      "inputs": [
        {
          "internalType": "uint256",
          "name": "_txID",
          "type": "uint256"
        }
      ],
      "name": "executeTransaction",
      "outputs": [],
      "stateMutability": "nonpayable",
      "type": "function"
    },
    {
      "inputs": [
        {
          "internalType": "uint256",
          "name": "_txID",
          "type": "uint256"
        }
      ],
      "name": "getConfirmationCount",
      "outputs": [
        {
          "internalType": "uint256",
          "name": "count",
          "type": "uint256"
        }
      ],
      "stateMutability": "view",
      "type": "function"
    },
    {
      "inputs": [],
      "name": "getOwners",
      "outputs": [
        {
          "internalType": "address[]",
          "name": "",
          "type": "address[]"
        }
      ],
      "stateMutability": "view",
      "type": "function"
    },
    {
      "inputs": [
        {
          "internalType": "uint256",
          "name": "_txID",
          "type": "uint256"
        },
        {
          "internalType": "address",
          "name": "owner",
          "type": "address"
        }
      ],
      "name": "isConfirmed",
      "outputs": [
        {
          "internalType": "bool",
          "name": "",
          "type": "bool"
        }
      ],
      "stateMutability": "view",
      "type": "function"
    },
    {
      "inputs": [
        {
          "internalType": "uint256",
          "name": "_txID",
          "type": "uint256"
        }
      ],
      "name": "isExecuted",
      "outputs": [
        {
          "internalType": "bool",
          "name": "",
          "type": "bool"
        }
      ],
      "stateMutability": "view",
      "type": "function"
    },
    {
      "inputs": [
        {
          "internalType": "address",
          "name": "",
          "type": "address"
        }
      ],
      "name": "isOwner",
      "outputs": [
        {
          "internalType": "bool",
          "name": "",
          "type": "bool"
        }
      ],
      "stateMutability": "view",
      "type": "function"
    },
    {
      "inputs": [
        {
          "internalType": "uint256",
          "name": "",
          "type": "uint256"
        }
      ],
      "name": "owners",
      "outputs": [
        {
          "internalType": "address",
          "name": "",
          "type": "address"
        }
      ],
      "stateMutability": "view",
      "type": "function"
    },
    {
      "inputs": [],
      "name": "required",
      "outputs": [
        {
          "internalType": "uint256",
          "name": "",
          "type": "uint256"
        }
      ],
      "stateMutability": "view",
      "type": "function"
    },
    {
      "inputs": [
        {
          "internalType": "address",
          "name": "_target",
          "type": "address"
        },
        {
          "internalType": "uint256",
          "name": "_value",
          "type": "uint256"
        },
        {
          "internalType": "bytes",
          "name": "_payload",
          "type": "bytes"
        }
      ],
      "name": "submitTransaction",
      "outputs": [
        {
          "internalType": "uint256",
          "name": "txID",
          "type": "uint256"
        }
      ],
      "stateMutability": "nonpayable",
      "type": "function"
    },
    {
      "inputs": [
        {
          "internalType": "uint256",
          "name": "",
          "type": "uint256"
        }
      ],
      "name": "transactions",
      "outputs": [
        {
          "internalType": "address",
          "name": "target",
          "type": "address"
        },
        {
          "internalType": "uint256",
          "name": "value",
          "type": "uint256"
        },
        {
          "internalType": "bytes",
          "name": "payload",
          "type": "bytes"
        },
        {
          "internalType": "bool",
          "name": "executed",
          "type": "bool"
        }
      ],
      "stateMutability": "view",
      "type": "function"
    },
    {
      "inputs": [],
      "name": "txCounter",
      "outputs": [
        {
          "internalType": "uint256",
          "name": "",
          "type": "uint256"
        }
      ],
      "stateMutability": "view",
      "type": "function"
    },
    {
      "stateMutability": "payable",
      "type": "receive"
    }
  ],
  "bytecode": "0x60406080815234620002c45762001094803803806200001e81620002c9565b9283398101918082840312620002c45781516001600160401b039390848111620002c45783019281601f85011215620002c45783519485116200017e5760059185831b602095868062000073818501620002c9565b809a81520192820101928311620002c45790868094939201905b828210620002985750505001519380511562000262578415158062000256575b15620002125760005b8151811015620001ff5780831b82018501516001600160a01b03168015620001cb5780600052600180875260ff86600020541662000194576000828152818852868120805460ff1916831790555490680100000000000000008210156200017e57810180600055811015620001685760008080528790200180546001600160a01b031916909117905560001981146200015257600101620000b6565b634e487b7160e01b600052601160045260246000fd5b634e487b7160e01b600052603260045260246000fd5b634e487b7160e01b600052604160045260246000fd5b855162461bcd60e51b815260048101889052601060248201526f4f776e6572206e6f7420756e6971756560801b6044820152606490fd5b845162461bcd60e51b815260048101879052600d60248201526c24b73b30b634b21037bbb732b960991b6044820152606490fd5b838660025551610da49081620002f08239f35b825162461bcd60e51b815260048101859052601e60248201527f496e76616c696420726571756972656420636f6e6669726d6174696f6e7300006044820152606490fd5b508051851115620000ad565b825162461bcd60e51b815260048101859052600f60248201526e13dddb995c9cc81c995c5d5a5c9959608a1b6044820152606490fd5b815193945091929091906001600160a01b0381168103620002c45781528693929184019084016200008d565b600080fd5b6040519190601f01601f191682016001600160401b038111838210176200017e5760405256fe6080604052600436101561001b575b361561001957600080fd5b005b60003560e01c8063025e7c2714610aa75780632f54bf6e14610a685780633411c81c14610a1a57806374f079b8146109fc57806376a6bf52146109bb57806380f59a651461095f5780638b51d13f146109395780639ace38c2146107ed578063a0e67e2b14610726578063c01a8c841461061e578063c6427474146102db578063dc8452cd146102bd5763ee22610b0361000e57346102b8576020806003193601126102b857600435903360005260018082526100df60ff60406000205416610bba565b6100ec6003548410610c46565b826000526004825261010960ff6003604060002001541615610c91565b61011283610cdc565b60025411610274578260005260048252604060002090600382019160ff199282848254161790556001600160a01b038154169260028383015492019060405193600092805461016081610b5e565b9381841691821561025d575050600114610222575b505050916000939181859403925af13d1561021d573d61019481610c2a565b906101a26040519283610b98565b81526000833d92013e5b156101d957507f15ed165a284872ea7017f03df402a0cadfbfab588320ffaf83f160c2f82781c7600080a2005b6064906040519062461bcd60e51b82526004820152601c60248201527f5472616e73616374696f6e20657865637574696f6e206661696c6564000000006044820152fd5b6101ac565b909192506000528560002090866000925b84841061024b57505050908301905081836000610175565b80548785015292019187908201610233565b168752505050801515028301905081836000610175565b6064826040519062461bcd60e51b82526004820152601860248201527f4e6f7420656e6f75676820636f6e6669726d6174696f6e7300000000000000006044820152fd5b600080fd5b346102b85760003660031901126102b8576020600254604051908152f35b346102b85760603660031901126102b8576102f4610b32565b60443567ffffffffffffffff81116102b857366023820112156102b85767ffffffffffffffff8160040135116102b8573660248260040135830101116102b85733600052600160205261034e60ff60406000205416610bba565b6003549061035b82610c05565b6003556040516080810181811067ffffffffffffffff821117610608576040526001600160a01b038416815260208101602435815261039d8360040135610c2a565b6103aa6040519182610b98565b60048401358082526024850160208301376000602085600401358301015260408301908152600060608401528460005260046020526040600020916001600160a01b038451167fffffffffffffffffffffffff00000000000000000000000000000000000000008454161783555160018301555180519067ffffffffffffffff82116106085761043d6002840154610b5e565b601f81116105bd575b5091859391602097938890601f831160011461051c576003606094847f3f6db45da5513bd4fe9f8a31e60ea668bdd4bca57e30a85a9a26f90c9fbcb56c98956001600160a01b0398958895600092610511575b50508160011b9160001990851b1c19161760028201555b01910151151560ff80198354169116179055604051928391602435835260408a84015287600401356040840152876004013560248901858501376000848960040135850101521695601f8019916004013501168101030190a3604051908152f35b015190508e80610499565b9060028401600052896000209160005b601f19851681106105a357506060946001856001600160a01b03989588956003957f3f6db45da5513bd4fe9f8a31e60ea668bdd4bca57e30a85a9a26f90c9fbcb56c9c99601f1981161061058b575b505050811b0160028201556104b0565b015160001983871b60f8161c191690558e808061057b565b8183015184558a9850600190930192918b01918b0161052c565b600284016000526020600020601f840160051c810191602085106105fe575b601f0160051c01905b8181106105f25750610446565b600081556001016105e5565b90915081906105dc565b634e487b7160e01b600052604160045260246000fd5b346102b8576020806003193601126102b85760043590336000526001815261064d60ff60406000205416610bba565b61065a6003548310610c46565b816000526004815261067760ff6003604060002001541615610c91565b8160005260058152604060002033600052815260ff604060002054166106e257816000526005815260406000209033600052526040600020600160ff19825416179055337ff8a17c9136a3ae33364fac05eb088a3cbafee10c1889c88593e20ee2d8e4eb88600080a3005b6064906040519062461bcd60e51b82526004820152601160248201527f416c726561647920636f6e6669726d65640000000000000000000000000000006044820152fd5b346102b85760003660031901126102b8576040518060005480835260208093018091600080527f290decd9548b62a8d60345a988386fc84ba6bc95484008f6362f93160ef3e5639060005b868282106107d057868661078782880383610b98565b604051928392818401908285525180915260408401929160005b8281106107b057505050500390f35b83516001600160a01b0316855286955093810193928101926001016107a1565b83546001600160a01b031685529093019260019283019201610771565b346102b8576020806003193601126102b857600435600052600481526040600020906001600160a01b038254169160019182820154916002810160405194859160009181549161083c83610b5e565b928386528783821691826000146109135750506001146108d1575b5050509161086e60039260ff949896980387610b98565b0154166040519485938452828401526080604084015283519182608085015260005b8381106108ba57505060a09350600084838501015215156060830152601f80199101168101030190f35b80860182015187820160a001528694508101610890565b86935060009291925282600020916000925b8284106108fb5750505082010161086e8260ff610857565b8054848b0186015289955087949093019281016108e3565b60ff19168782015293151560051b8601909301935061086e925084915060ff9050610857565b346102b85760203660031901126102b8576020610957600435610cdc565b604051908152f35b346102b85760403660031901126102b85760043561097b610b48565b906109896003548210610c46565b60005260056020526001600160a01b0360406000209116600052602052602060ff604060002054166040519015158152f35b346102b85760203660031901126102b8576004356109dc6003548210610c46565b6000526004602052602060ff600360406000200154166040519015158152f35b346102b85760003660031901126102b8576020600354604051908152f35b346102b85760403660031901126102b857610a33610b48565b60043560005260056020526001600160a01b0360406000209116600052602052602060ff604060002054166040519015158152f35b346102b85760203660031901126102b8576001600160a01b03610a89610b32565b166000526001602052602060ff604060002054166040519015158152f35b346102b85760203660031901126102b8576004356000548110156102b8576001600160a01b03610ad8602092610ae8565b9190546040519260031b1c168152f35b906000918254811015610b1e578280527f290decd9548b62a8d60345a988386fc84ba6bc95484008f6362f93160ef3e563019190565b602483634e487b7160e01b81526032600452fd5b600435906001600160a01b03821682036102b857565b602435906001600160a01b03821682036102b857565b90600182811c92168015610b8e575b6020831014610b7857565b634e487b7160e01b600052602260045260246000fd5b91607f1691610b6d565b90601f8019910116810190811067ffffffffffffffff82111761060857604052565b15610bc157565b606460405162461bcd60e51b815260206004820152600c60248201527f4e6f7420616e206f776e657200000000000000000000000000000000000000006044820152fd5b6000198114610c145760010190565b634e487b7160e01b600052601160045260246000fd5b67ffffffffffffffff811161060857601f01601f191660200190565b15610c4d57565b606460405162461bcd60e51b815260206004820152601a60248201527f5472616e73616374696f6e20646f6573206e6f742065786973740000000000006044820152fd5b15610c9857565b606460405162461bcd60e51b815260206004820152601c60248201527f5472616e73616374696f6e20616c7265616479206578656375746564000000006044820152fd5b906000916000906003610cf181548310610c46565b825491835b838110610d04575050505050565b81855260ff602060058152604090818820906001600160a01b03610d2786610ae8565b905490891b1c1689525286205416610d48575b610d4390610c05565b610cf6565b9560018101809111610d5a5795610d3a565b602485634e487b7160e01b81526011600452fdfea2646970667358221220754455e1b410748b18f7f90d4b2fbe558e08e9b7c428357a582a8ef91e3c2a7964736f6c63430008140033",
  "linkReferences": {},
  "deployedLinkReferences": {}
}